{
  "_format": "hh-sol-artifact-1",
  "contractName": "GrantRaffle",
  "sourceName": "contracts/GrantRaffle.sol",
  "abi": [
    {
      "inputs": [
        {
          "internalType": "contract GrantToken",
          "name": "_grantToken",
          "type": "address"
        }
      ],
      "stateMutability": "nonpayable",
      "type": "constructor"
    },
    {
      "anonymous": false,
      "inputs": [
        {
          "indexed": true,
          "internalType": "address",
          "name": "previousOwner",
          "type": "address"
        },
        {
          "indexed": true,
          "internalType": "address",
          "name": "newOwner",
          "type": "address"
        }
      ],
      "name": "OwnershipTransferred",
      "type": "event"
    },
    {
      "anonymous": false,
      "inputs": [
        {
          "indexed": false,
          "internalType": "uint256",
          "name": "grantId",
          "type": "uint256"
        },
        {
          "indexed": false,
          "internalType": "uint256",
          "name": "amount",
          "type": "uint256"
        }
      ],
      "name": "Raffle",
      "type": "event"
    },
    {
      "inputs": [
        {
          "internalType": "uint256[]",
          "name": "_weights",
          "type": "uint256[]"
        },
        {
          "internalType": "uint256",
          "name": "_lowIndex",
          "type": "uint256"
        },
        {
          "internalType": "uint256",
          "name": "_highIndex",
          "type": "uint256"
        },
        {
          "internalType": "uint256",
          "name": "_prob",
          "type": "uint256"
        }
      ],
      "name": "binarySearch",
      "outputs": [
        {
          "internalType": "uint256",
          "name": "",
          "type": "uint256"
        }
      ],
      "stateMutability": "pure",
      "type": "function"
    },
    {
      "inputs": [
        {
          "internalType": "uint256",
          "name": "_numChooseGrants",
          "type": "uint256"
        },
        {
          "internalType": "uint256",
          "name": "_numGrants",
          "type": "uint256"
        }
      ],
      "name": "calculateWeights",
      "outputs": [
        {
          "internalType": "uint256[]",
          "name": "",
          "type": "uint256[]"
        }
      ],
      "stateMutability": "view",
      "type": "function"
    },
    {
      "inputs": [
        {
          "internalType": "uint256",
          "name": "_numChooseGrants",
          "type": "uint256"
        }
      ],
      "name": "chooseGrants",
      "outputs": [
        {
          "internalType": "uint256[]",
          "name": "",
          "type": "uint256[]"
        }
      ],
      "stateMutability": "nonpayable",
      "type": "function"
    },
    {
      "inputs": [
        {
          "internalType": "address",
          "name": "_owner",
          "type": "address"
        },
        {
          "internalType": "string",
          "name": "_metadataURI",
          "type": "string"
        },
        {
          "internalType": "uint256",
          "name": "_amountRequested",
          "type": "uint256"
        }
      ],
      "name": "createGrant",
      "outputs": [],
      "stateMutability": "nonpayable",
      "type": "function"
    },
    {
      "inputs": [],
      "name": "donate",
      "outputs": [],
      "stateMutability": "payable",
      "type": "function"
    },
    {
      "inputs": [
        {
          "internalType": "address",
          "name": "",
          "type": "address"
        }
      ],
      "name": "donations",
      "outputs": [
        {
          "internalType": "uint256",
          "name": "",
          "type": "uint256"
        }
      ],
      "stateMutability": "view",
      "type": "function"
    },
    {
      "inputs": [
        {
          "internalType": "uint256",
          "name": "_numChooseGrants",
          "type": "uint256"
        }
      ],
      "name": "grantRaffle",
      "outputs": [],
      "stateMutability": "nonpayable",
      "type": "function"
    },
    {
      "inputs": [],
      "name": "lastRaffleTime",
      "outputs": [
        {
          "internalType": "uint256",
          "name": "",
          "type": "uint256"
        }
      ],
      "stateMutability": "view",
      "type": "function"
    },
    {
      "inputs": [],
      "name": "owner",
      "outputs": [
        {
          "internalType": "address",
          "name": "",
          "type": "address"
        }
      ],
      "stateMutability": "view",
      "type": "function"
    },
    {
      "inputs": [],
      "name": "percentAvailable",
      "outputs": [
        {
          "internalType": "uint8",
          "name": "",
          "type": "uint8"
        }
      ],
      "stateMutability": "view",
      "type": "function"
    },
    {
      "inputs": [
        {
          "internalType": "uint256",
          "name": "_mod",
          "type": "uint256"
        }
      ],
      "name": "randModulus",
      "outputs": [
        {
          "internalType": "uint256",
          "name": "",
          "type": "uint256"
        }
      ],
      "stateMutability": "nonpayable",
      "type": "function"
    },
    {
      "inputs": [],
      "name": "renounceOwnership",
      "outputs": [],
      "stateMutability": "nonpayable",
      "type": "function"
    },
    {
      "inputs": [
        {
          "internalType": "uint8",
          "name": "_newPercent",
          "type": "uint8"
        }
      ],
      "name": "setPercentAvailable",
      "outputs": [],
      "stateMutability": "nonpayable",
      "type": "function"
    },
    {
      "inputs": [
        {
          "internalType": "address",
          "name": "newOwner",
          "type": "address"
        }
      ],
      "name": "transferOwnership",
      "outputs": [],
      "stateMutability": "nonpayable",
      "type": "function"
    }
  ],
  "bytecode": "0x60806040526050600460006101000a81548160ff021916908360ff1602179055503480156200002d57600080fd5b506040516200277d3803806200277d83398181016040528101906200005391906200019e565b6200007362000067620000bb60201b60201c565b620000c360201b60201c565b80600260006101000a81548173ffffffffffffffffffffffffffffffffffffffff021916908373ffffffffffffffffffffffffffffffffffffffff1602179055505062000237565b600033905090565b60008060009054906101000a900473ffffffffffffffffffffffffffffffffffffffff169050816000806101000a81548173ffffffffffffffffffffffffffffffffffffffff021916908373ffffffffffffffffffffffffffffffffffffffff1602179055508173ffffffffffffffffffffffffffffffffffffffff168173ffffffffffffffffffffffffffffffffffffffff167f8be0079c531659141344cd1fd0a4f28419497f9722a3daafe3b4186f6b6457e060405160405180910390a35050565b60008151905062000198816200021d565b92915050565b600060208284031215620001b757620001b662000218565b5b6000620001c78482850162000187565b91505092915050565b6000620001dd82620001f8565b9050919050565b6000620001f182620001d0565b9050919050565b600073ffffffffffffffffffffffffffffffffffffffff82169050919050565b600080fd5b6200022881620001e4565b81146200023457600080fd5b50565b61253680620002476000396000f3fe6080604052600436106100dd5760003560e01c80638da5cb5b1161007f578063cc6cb19a11610059578063cc6cb19a146102ac578063ed88c68e146102e9578063f0b646fa146102f3578063f2fde38b14610330576100dd565b80638da5cb5b14610219578063b181ebe014610244578063b57867f714610281576100dd565b806353442901116100bb5780635344290114610173578063572a81e6146101b0578063715018a6146101d95780637cb9fc09146101f0576100dd565b80630ca1006c146100e257806311abf59e1461010d578063275b711914610136575b600080fd5b3480156100ee57600080fd5b506100f7610359565b6040516101049190611e71565b60405180910390f35b34801561011957600080fd5b50610134600480360381019061012f91906119c8565b61036c565b005b34801561014257600080fd5b5061015d600480360381019061015891906119c8565b610831565b60405161016a9190611d30565b60405180910390f35b34801561017f57600080fd5b5061019a600480360381019061019591906119c8565b610a28565b6040516101a79190611e2d565b60405180910390f35b3480156101bc57600080fd5b506101d760048036038101906101d291906118d6565b610a90565b005b3480156101e557600080fd5b506101ee610c6f565b005b3480156101fc57600080fd5b5061021760048036038101906102129190611a62565b610cf7565b005b34801561022557600080fd5b5061022e610d91565b60405161023b9190611cd7565b60405180910390f35b34801561025057600080fd5b5061026b60048036038101906102669190611a22565b610dba565b6040516102789190611d30565b60405180910390f35b34801561028d57600080fd5b5061029661137f565b6040516102a39190611e2d565b60405180910390f35b3480156102b857600080fd5b506102d360048036038101906102ce919061187c565b611385565b6040516102e09190611e2d565b60405180910390f35b6102f161139d565b005b3480156102ff57600080fd5b5061031a60048036038101906103159190611945565b61143a565b6040516103279190611e2d565b60405180910390f35b34801561033c57600080fd5b506103576004803603810190610352919061187c565b61151d565b005b600460009054906101000a900460ff1681565b610e106003544261037d9190612044565b116103bd576040517f08c379a00000000000000000000000000000000000000000000000000000000081526004016103b490611dcd565b60405180910390fd5b60006103c882610831565b9050600080600090505b825181101561082457600260009054906101000a900473ffffffffffffffffffffffffffffffffffffffff1673ffffffffffffffffffffffffffffffffffffffff1663f7944f7684838151811061042c5761042b61224c565b5b60200260200101516040518263ffffffff1660e01b81526004016104509190611e2d565b60206040518083038186803b15801561046857600080fd5b505afa15801561047c573d6000803e3d6000fd5b505050506040513d601f19601f820116820180604052508101906104a091906119f5565b9150600260009054906101000a900473ffffffffffffffffffffffffffffffffffffffff1673ffffffffffffffffffffffffffffffffffffffff16636352211e836040518263ffffffff1660e01b81526004016104fd9190611e2d565b60206040518083038186803b15801561051557600080fd5b505afa158015610529573d6000803e3d6000fd5b505050506040513d601f19601f8201168201806040525081019061054d91906118a9565b73ffffffffffffffffffffffffffffffffffffffff166108fc600260009054906101000a900473ffffffffffffffffffffffffffffffffffffffff1673ffffffffffffffffffffffffffffffffffffffff16638550b880856040518263ffffffff1660e01b81526004016105c19190611e2d565b60206040518083038186803b1580156105d957600080fd5b505afa1580156105ed573d6000803e3d6000fd5b505050506040513d601f19601f8201168201806040525081019061061191906119f5565b9081150290604051600060405180830381858888f1935050505015801561063c573d6000803e3d6000fd5b5061072e60056000600260009054906101000a900473ffffffffffffffffffffffffffffffffffffffff1673ffffffffffffffffffffffffffffffffffffffff16636352211e866040518263ffffffff1660e01b815260040161069f9190611e2d565b60206040518083038186803b1580156106b757600080fd5b505afa1580156106cb573d6000803e3d6000fd5b505050506040513d601f19601f820116820180604052508101906106ef91906118a9565b73ffffffffffffffffffffffffffffffffffffffff1673ffffffffffffffffffffffffffffffffffffffff168152602001908152602001600020611615565b7fd924f3b4f4d6f91cc21fa796267246d78f04ed834ef61afbd683df0510236e7382600260009054906101000a900473ffffffffffffffffffffffffffffffffffffffff1673ffffffffffffffffffffffffffffffffffffffff16638550b880856040518263ffffffff1660e01b81526004016107ab9190611e2d565b60206040518083038186803b1580156107c357600080fd5b505afa1580156107d7573d6000803e3d6000fd5b505050506040513d601f19601f820116820180604052508101906107fb91906119f5565b604051610809929190611e48565b60405180910390a1808061081c90612146565b9150506103d2565b5042600381905550505050565b60606000600260009054906101000a900473ffffffffffffffffffffffffffffffffffffffff1673ffffffffffffffffffffffffffffffffffffffff166383392e976040518163ffffffff1660e01b815260040160206040518083038186803b15801561089d57600080fd5b505afa1580156108b1573d6000803e3d6000fd5b505050506040513d601f19601f820116820180604052508101906108d591906119f5565b9050808310610919576040517f08c379a000000000000000000000000000000000000000000000000000000000815260040161091090611dad565b60405180910390fd5b60006109258483610dba565b905060008467ffffffffffffffff8111156109435761094261227b565b5b6040519080825280602002602001820160405280156109715781602001602082028036833780820191505090505b50905060008583600185516109869190612044565b815181106109975761099661224c565b5b60200260200101516109a99190611fb9565b905060006109b682610a28565b905060005b8351811015610a1a576109e8856000875186856109d89190611fea565b866109e39190611f63565b61143a565b8482815181106109fb576109fa61224c565b5b6020026020010181815250508080610a1290612146565b9150506109bb565b508295505050505050919050565b600080600183610a389190611f63565b610a42600161162b565b424433604051602001610a589493929190611c89565b6040516020818303038152906040528051906020012060001c610a7b91906121bd565b9050610a876001611615565b80915050919050565b60006064600460009054906101000a900460ff1660ff1647610ab29190611fea565b610abc9190611fb9565b90506001600260009054906101000a900473ffffffffffffffffffffffffffffffffffffffff1673ffffffffffffffffffffffffffffffffffffffff166383392e976040518163ffffffff1660e01b815260040160206040518083038186803b158015610b2857600080fd5b505afa158015610b3c573d6000803e3d6000fd5b505050506040513d601f19601f82011682018060405250810190610b6091906119f5565b610b6a9190611f63565b81610b759190611fb9565b821115610bb7576040517f08c379a0000000000000000000000000000000000000000000000000000000008152600401610bae90611ded565b60405180910390fd5b600260009054906101000a900473ffffffffffffffffffffffffffffffffffffffff1673ffffffffffffffffffffffffffffffffffffffff1663611b2fed8585856040518463ffffffff1660e01b8152600401610c1693929190611cf2565b602060405180830381600087803b158015610c3057600080fd5b505af1158015610c44573d6000803e3d6000fd5b505050506040513d601f19601f82011682018060405250810190610c6891906119f5565b5050505050565b610c77611639565b73ffffffffffffffffffffffffffffffffffffffff16610c95610d91565b73ffffffffffffffffffffffffffffffffffffffff1614610ceb576040517f08c379a0000000000000000000000000000000000000000000000000000000008152600401610ce290611d8d565b60405180910390fd5b610cf56000611641565b565b610cff611639565b73ffffffffffffffffffffffffffffffffffffffff16610d1d610d91565b73ffffffffffffffffffffffffffffffffffffffff1614610d73576040517f08c379a0000000000000000000000000000000000000000000000000000000008152600401610d6a90611d8d565b60405180910390fd5b80600460006101000a81548160ff021916908360ff16021790555050565b60008060009054906101000a900473ffffffffffffffffffffffffffffffffffffffff16905090565b606060008267ffffffffffffffff811115610dd857610dd761227b565b5b604051908082528060200260200182016040528015610e065781602001602082028036833780820191505090505b5090506000600260009054906101000a900473ffffffffffffffffffffffffffffffffffffffff1673ffffffffffffffffffffffffffffffffffffffff1663f7944f7660006040518263ffffffff1660e01b8152600401610e679190611d52565b60206040518083038186803b158015610e7f57600080fd5b505afa158015610e93573d6000803e3d6000fd5b505050506040513d601f19601f82011682018060405250810190610eb791906119f5565b9050846001610fad60056000600260009054906101000a900473ffffffffffffffffffffffffffffffffffffffff1673ffffffffffffffffffffffffffffffffffffffff16636352211e876040518263ffffffff1660e01b8152600401610f1e9190611e2d565b60206040518083038186803b158015610f3657600080fd5b505afa158015610f4a573d6000803e3d6000fd5b505050506040513d601f19601f82011682018060405250810190610f6e91906118a9565b73ffffffffffffffffffffffffffffffffffffffff1673ffffffffffffffffffffffffffffffffffffffff16815260200190815260200160002061162b565b610fb79190611f63565b600260009054906101000a900473ffffffffffffffffffffffffffffffffffffffff1673ffffffffffffffffffffffffffffffffffffffff1663d6123b9060006040518263ffffffff1660e01b81526004016110139190611d52565b60206040518083038186803b15801561102b57600080fd5b505afa15801561103f573d6000803e3d6000fd5b505050506040513d601f19601f8201168201806040525081019061106391906119f5565b61106d9190611fb9565b6110779190611fea565b8260008151811061108b5761108a61224c565b5b6020026020010181815250506000600190505b8481101561137357600260009054906101000a900473ffffffffffffffffffffffffffffffffffffffff1673ffffffffffffffffffffffffffffffffffffffff1663f7944f76826040518263ffffffff1660e01b81526004016111019190611e2d565b60206040518083038186803b15801561111957600080fd5b505afa15801561112d573d6000803e3d6000fd5b505050506040513d601f19601f8201168201806040525081019061115191906119f5565b915085600161124760056000600260009054906101000a900473ffffffffffffffffffffffffffffffffffffffff1673ffffffffffffffffffffffffffffffffffffffff16636352211e886040518263ffffffff1660e01b81526004016111b89190611e2d565b60206040518083038186803b1580156111d057600080fd5b505afa1580156111e4573d6000803e3d6000fd5b505050506040513d601f19601f8201168201806040525081019061120891906118a9565b73ffffffffffffffffffffffffffffffffffffffff1673ffffffffffffffffffffffffffffffffffffffff16815260200190815260200160002061162b565b6112519190611f63565b600260009054906101000a900473ffffffffffffffffffffffffffffffffffffffff1673ffffffffffffffffffffffffffffffffffffffff1663d6123b90846040518263ffffffff1660e01b81526004016112ac9190611e2d565b60206040518083038186803b1580156112c457600080fd5b505afa1580156112d8573d6000803e3d6000fd5b505050506040513d601f19601f820116820180604052508101906112fc91906119f5565b6113069190611fb9565b6113109190611fea565b8360018361131e9190612044565b8151811061132f5761132e61224c565b5b60200260200101516113419190611f63565b8382815181106113545761135361224c565b5b602002602001018181525050808061136b90612146565b91505061109e565b50819250505092915050565b60035481565b60066020528060005260406000206000915090505481565b34600081116113e1576040517f08c379a00000000000000000000000000000000000000000000000000000000081526004016113d890611e0d565b60405180910390fd5b34600660003373ffffffffffffffffffffffffffffffffffffffff1673ffffffffffffffffffffffffffffffffffffffff16815260200190815260200160002060008282546114309190611f63565b9250508190555050565b6000805b8385101561151057600284866114549190611f63565b61145e9190611fb9565b9050828682815181106114745761147361224c565b5b6020026020010151141561148b5780915050611515565b8286828151811061149f5761149e61224c565b5b60200260200101511080156114b45750848114155b156114c15780945061150b565b828682815181106114d5576114d461224c565b5b60200260200101511180156114ea5750838114155b156114f75780935061150a565b6001856115049190611f63565b94508493505b5b61143e565b849150505b949350505050565b611525611639565b73ffffffffffffffffffffffffffffffffffffffff16611543610d91565b73ffffffffffffffffffffffffffffffffffffffff1614611599576040517f08c379a000000000000000000000000000000000000000000000000000000000815260040161159090611d8d565b60405180910390fd5b600073ffffffffffffffffffffffffffffffffffffffff168173ffffffffffffffffffffffffffffffffffffffff161415611609576040517f08c379a000000000000000000000000000000000000000000000000000000000815260040161160090611d6d565b60405180910390fd5b61161281611641565b50565b6001816000016000828254019250508190555050565b600081600001549050919050565b600033905090565b60008060009054906101000a900473ffffffffffffffffffffffffffffffffffffffff169050816000806101000a81548173ffffffffffffffffffffffffffffffffffffffff021916908373ffffffffffffffffffffffffffffffffffffffff1602179055508173ffffffffffffffffffffffffffffffffffffffff168173ffffffffffffffffffffffffffffffffffffffff167f8be0079c531659141344cd1fd0a4f28419497f9722a3daafe3b4186f6b6457e060405160405180910390a35050565b600061171861171384611eb1565b611e8c565b9050808382526020820190508285602086028201111561173b5761173a6122af565b5b60005b8581101561176b5781611751888261183d565b84526020840193506020830192505060018101905061173e565b5050509392505050565b600061178861178384611edd565b611e8c565b9050828152602081018484840111156117a4576117a36122b4565b5b6117af8482856120d3565b509392505050565b6000813590506117c6816124bb565b92915050565b6000815190506117db816124bb565b92915050565b600082601f8301126117f6576117f56122aa565b5b8135611806848260208601611705565b91505092915050565b600082601f830112611824576118236122aa565b5b8135611834848260208601611775565b91505092915050565b60008135905061184c816124d2565b92915050565b600081519050611861816124d2565b92915050565b600081359050611876816124e9565b92915050565b600060208284031215611892576118916122be565b5b60006118a0848285016117b7565b91505092915050565b6000602082840312156118bf576118be6122be565b5b60006118cd848285016117cc565b91505092915050565b6000806000606084860312156118ef576118ee6122be565b5b60006118fd868287016117b7565b935050602084013567ffffffffffffffff81111561191e5761191d6122b9565b5b61192a8682870161180f565b925050604061193b8682870161183d565b9150509250925092565b6000806000806080858703121561195f5761195e6122be565b5b600085013567ffffffffffffffff81111561197d5761197c6122b9565b5b611989878288016117e1565b945050602061199a8782880161183d565b93505060406119ab8782880161183d565b92505060606119bc8782880161183d565b91505092959194509250565b6000602082840312156119de576119dd6122be565b5b60006119ec8482850161183d565b91505092915050565b600060208284031215611a0b57611a0a6122be565b5b6000611a1984828501611852565b91505092915050565b60008060408385031215611a3957611a386122be565b5b6000611a478582860161183d565b9250506020611a588582860161183d565b9150509250929050565b600060208284031215611a7857611a776122be565b5b6000611a8684828501611867565b91505092915050565b6000611a9b8383611c45565b60208301905092915050565b611ab081612078565b82525050565b611ac7611ac282612078565b61218f565b82525050565b6000611ad882611f1e565b611ae28185611f41565b9350611aed83611f0e565b8060005b83811015611b1e578151611b058882611a8f565b9750611b1083611f34565b925050600181019050611af1565b5085935050505092915050565b611b34816120c1565b82525050565b6000611b4582611f29565b611b4f8185611f52565b9350611b5f8185602086016120e2565b611b68816122c3565b840191505092915050565b6000611b80602683611f52565b9150611b8b826122e1565b604082019050919050565b6000611ba3602083611f52565b9150611bae82612330565b602082019050919050565b6000611bc6604583611f52565b9150611bd182612359565b606082019050919050565b6000611be9602183611f52565b9150611bf4826123ce565b604082019050919050565b6000611c0c604683611f52565b9150611c178261241d565b606082019050919050565b6000611c2f601583611f52565b9150611c3a82612492565b602082019050919050565b611c4e816120aa565b82525050565b611c5d816120aa565b82525050565b611c74611c6f826120aa565b6121b3565b82525050565b611c83816120b4565b82525050565b6000611c958287611c63565b602082019150611ca58286611c63565b602082019150611cb58285611c63565b602082019150611cc58284611ab6565b60148201915081905095945050505050565b6000602082019050611cec6000830184611aa7565b92915050565b6000606082019050611d076000830186611aa7565b8181036020830152611d198185611b3a565b9050611d286040830184611c54565b949350505050565b60006020820190508181036000830152611d4a8184611acd565b905092915050565b6000602082019050611d676000830184611b2b565b92915050565b60006020820190508181036000830152611d8681611b73565b9050919050565b60006020820190508181036000830152611da681611b96565b9050919050565b60006020820190508181036000830152611dc681611bb9565b9050919050565b60006020820190508181036000830152611de681611bdc565b9050919050565b60006020820190508181036000830152611e0681611bff565b9050919050565b60006020820190508181036000830152611e2681611c22565b9050919050565b6000602082019050611e426000830184611c54565b92915050565b6000604082019050611e5d6000830185611c54565b611e6a6020830184611c54565b9392505050565b6000602082019050611e866000830184611c7a565b92915050565b6000611e96611ea7565b9050611ea28282612115565b919050565b6000604051905090565b600067ffffffffffffffff821115611ecc57611ecb61227b565b5b602082029050602081019050919050565b600067ffffffffffffffff821115611ef857611ef761227b565b5b611f01826122c3565b9050602081019050919050565b6000819050602082019050919050565b600081519050919050565b600081519050919050565b6000602082019050919050565b600082825260208201905092915050565b600082825260208201905092915050565b6000611f6e826120aa565b9150611f79836120aa565b9250827fffffffffffffffffffffffffffffffffffffffffffffffffffffffffffffffff03821115611fae57611fad6121ee565b5b828201905092915050565b6000611fc4826120aa565b9150611fcf836120aa565b925082611fdf57611fde61221d565b5b828204905092915050565b6000611ff5826120aa565b9150612000836120aa565b9250817fffffffffffffffffffffffffffffffffffffffffffffffffffffffffffffffff0483118215151615612039576120386121ee565b5b828202905092915050565b600061204f826120aa565b915061205a836120aa565b92508282101561206d5761206c6121ee565b5b828203905092915050565b60006120838261208a565b9050919050565b600073ffffffffffffffffffffffffffffffffffffffff82169050919050565b6000819050919050565b600060ff82169050919050565b60006120cc826120aa565b9050919050565b82818337600083830152505050565b60005b838110156121005780820151818401526020810190506120e5565b8381111561210f576000848401525b50505050565b61211e826122c3565b810181811067ffffffffffffffff8211171561213d5761213c61227b565b5b80604052505050565b6000612151826120aa565b91507fffffffffffffffffffffffffffffffffffffffffffffffffffffffffffffffff821415612184576121836121ee565b5b600182019050919050565b600061219a826121a1565b9050919050565b60006121ac826122d4565b9050919050565b6000819050919050565b60006121c8826120aa565b91506121d3836120aa565b9250826121e3576121e261221d565b5b828206905092915050565b7f4e487b7100000000000000000000000000000000000000000000000000000000600052601160045260246000fd5b7f4e487b7100000000000000000000000000000000000000000000000000000000600052601260045260246000fd5b7f4e487b7100000000000000000000000000000000000000000000000000000000600052603260045260246000fd5b7f4e487b7100000000000000000000000000000000000000000000000000000000600052604160045260246000fd5b600080fd5b600080fd5b600080fd5b600080fd5b600080fd5b6000601f19601f8301169050919050565b60008160601b9050919050565b7f4f776e61626c653a206e6577206f776e657220697320746865207a65726f206160008201527f6464726573730000000000000000000000000000000000000000000000000000602082015250565b7f4f776e61626c653a2063616c6c6572206973206e6f7420746865206f776e6572600082015250565b7f4e756d626572206f662063686f73656e206772616e74732073686f756c64206260008201527f6520736d616c6c6572207468616e20746f74616c206e756d626572206f66206760208201527f72616e7473000000000000000000000000000000000000000000000000000000604082015250565b7f4e657874204772616e7420526166666c652057696c6c20426520496e20486f7560008201527f7200000000000000000000000000000000000000000000000000000000000000602082015250565b7f4d61782046756e6420416d6f756e74205375727061737365642e20506c65617360008201527f65206c6f77657220796f7572207265717565737465642066756e64696e67206160208201527f6d6f756e742e0000000000000000000000000000000000000000000000000000604082015250565b7f416d6f756e74206d7573742062652076616c69642e0000000000000000000000600082015250565b6124c481612078565b81146124cf57600080fd5b50565b6124db816120aa565b81146124e657600080fd5b50565b6124f2816120b4565b81146124fd57600080fd5b5056fea2646970667358221220ad71a631618e85a6283eeb3d45a63e60f253561a321b11aaca49c42e5dbcc0b364736f6c63430008070033",
  "linkReferences": {},
  "deployedLinkReferences": {}
}