{
  "_format": "hh-sol-artifact-1",
  "contractName": "GrantDonate",
  "sourceName": "contracts/GrantDonate.sol",
  "abi": [
    {
      "inputs": [
        {
          "internalType": "contract GrantToken",
          "name": "_grantToken",
          "type": "address"
        }
      ],
      "stateMutability": "nonpayable",
      "type": "constructor"
    },
    {
      "anonymous": false,
      "inputs": [
        {
          "indexed": false,
          "internalType": "uint256",
          "name": "grantId",
          "type": "uint256"
        },
        {
          "indexed": false,
          "internalType": "uint256",
          "name": "amount",
          "type": "uint256"
        }
      ],
      "name": "Donation",
      "type": "event"
    },
    {
      "anonymous": false,
      "inputs": [
        {
          "indexed": true,
          "internalType": "address",
          "name": "previousOwner",
          "type": "address"
        },
        {
          "indexed": true,
          "internalType": "address",
          "name": "newOwner",
          "type": "address"
        }
      ],
      "name": "OwnershipTransferred",
      "type": "event"
    },
    {
      "inputs": [
        {
          "internalType": "uint256",
          "name": "_grantId",
          "type": "uint256"
        }
      ],
      "name": "donate",
      "outputs": [],
      "stateMutability": "payable",
      "type": "function"
    },
    {
      "inputs": [
        {
          "internalType": "address",
          "name": "",
          "type": "address"
        }
      ],
      "name": "donations",
      "outputs": [
        {
          "internalType": "uint256",
          "name": "",
          "type": "uint256"
        }
      ],
      "stateMutability": "view",
      "type": "function"
    },
    {
      "inputs": [],
      "name": "owner",
      "outputs": [
        {
          "internalType": "address",
          "name": "",
          "type": "address"
        }
      ],
      "stateMutability": "view",
      "type": "function"
    },
    {
      "inputs": [],
      "name": "renounceOwnership",
      "outputs": [],
      "stateMutability": "nonpayable",
      "type": "function"
    },
    {
      "inputs": [],
      "name": "totalAmountDonated",
      "outputs": [
        {
          "internalType": "uint256",
          "name": "",
          "type": "uint256"
        }
      ],
      "stateMutability": "view",
      "type": "function"
    },
    {
      "inputs": [
        {
          "internalType": "uint256",
          "name": "",
          "type": "uint256"
        }
      ],
      "name": "totalGrantFunds",
      "outputs": [
        {
          "internalType": "uint256",
          "name": "",
          "type": "uint256"
        }
      ],
      "stateMutability": "view",
      "type": "function"
    },
    {
      "inputs": [
        {
          "internalType": "address",
          "name": "newOwner",
          "type": "address"
        }
      ],
      "name": "transferOwnership",
      "outputs": [],
      "stateMutability": "nonpayable",
      "type": "function"
    }
  ],
  "bytecode": "0x6080604052600060045534801561001557600080fd5b50604051610c5a380380610c5a8339818101604052810190610037919061017b565b61005361004861009a60201b60201c565b6100a260201b60201c565b80600160006101000a81548173ffffffffffffffffffffffffffffffffffffffff021916908373ffffffffffffffffffffffffffffffffffffffff16021790555050610208565b600033905090565b60008060009054906101000a900473ffffffffffffffffffffffffffffffffffffffff169050816000806101000a81548173ffffffffffffffffffffffffffffffffffffffff021916908373ffffffffffffffffffffffffffffffffffffffff1602179055508173ffffffffffffffffffffffffffffffffffffffff168173ffffffffffffffffffffffffffffffffffffffff167f8be0079c531659141344cd1fd0a4f28419497f9722a3daafe3b4186f6b6457e060405160405180910390a35050565b600081519050610175816101f1565b92915050565b600060208284031215610191576101906101ec565b5b600061019f84828501610166565b91505092915050565b60006101b3826101cc565b9050919050565b60006101c5826101a8565b9050919050565b600073ffffffffffffffffffffffffffffffffffffffff82169050919050565b600080fd5b6101fa816101ba565b811461020557600080fd5b50565b610a43806102176000396000f3fe6080604052600436106100705760003560e01c8063cc6cb19a1161004e578063cc6cb19a146100f4578063f0f89eea14610131578063f14faf6f1461015c578063f2fde38b1461017857610070565b8063715018a61461007557806382c7f02e1461008c5780638da5cb5b146100c9575b600080fd5b34801561008157600080fd5b5061008a6101a1565b005b34801561009857600080fd5b506100b360048036038101906100ae91906106f4565b610229565b6040516100c09190610823565b60405180910390f35b3480156100d557600080fd5b506100de610241565b6040516100eb91906107a8565b60405180910390f35b34801561010057600080fd5b5061011b6004803603810190610116919061069a565b61026a565b6040516101289190610823565b60405180910390f35b34801561013d57600080fd5b50610146610282565b6040516101539190610823565b60405180910390f35b610176600480360381019061017191906106f4565b610288565b005b34801561018457600080fd5b5061019f600480360381019061019a919061069a565b610497565b005b6101a961058f565b73ffffffffffffffffffffffffffffffffffffffff166101c7610241565b73ffffffffffffffffffffffffffffffffffffffff161461021d576040517f08c379a000000000000000000000000000000000000000000000000000000000815260040161021490610803565b60405180910390fd5b6102276000610597565b565b60036020528060005260406000206000915090505481565b60008060009054906101000a900473ffffffffffffffffffffffffffffffffffffffff16905090565b60026020528060005260406000206000915090505481565b60045481565b600034116102cb576040517f08c379a00000000000000000000000000000000000000000000000000000000081526004016102c2906107e3565b60405180910390fd5b6000600160009054906101000a900473ffffffffffffffffffffffffffffffffffffffff1673ffffffffffffffffffffffffffffffffffffffff16636352211e836040518263ffffffff1660e01b81526004016103289190610823565b60206040518083038186803b15801561034057600080fd5b505afa158015610354573d6000803e3d6000fd5b505050506040513d601f19601f8201168201806040525081019061037891906106c7565b90508073ffffffffffffffffffffffffffffffffffffffff166108fc349081150290604051600060405180830381858888f193505050501580156103c0573d6000803e3d6000fd5b5034600260008373ffffffffffffffffffffffffffffffffffffffff1673ffffffffffffffffffffffffffffffffffffffff16815260200190815260200160002060008282546104109190610878565b925050819055503460036000848152602001908152602001600020600082825461043a9190610878565b9250508190555034600460008282546104539190610878565b925050819055507f965f7409cc0fd75aafcf803f57c201a8530900e4a4cbc0c622b1ea8f4cfbcf47823460405161048b92919061083e565b60405180910390a15050565b61049f61058f565b73ffffffffffffffffffffffffffffffffffffffff166104bd610241565b73ffffffffffffffffffffffffffffffffffffffff1614610513576040517f08c379a000000000000000000000000000000000000000000000000000000000815260040161050a90610803565b60405180910390fd5b600073ffffffffffffffffffffffffffffffffffffffff168173ffffffffffffffffffffffffffffffffffffffff161415610583576040517f08c379a000000000000000000000000000000000000000000000000000000000815260040161057a906107c3565b60405180910390fd5b61058c81610597565b50565b600033905090565b60008060009054906101000a900473ffffffffffffffffffffffffffffffffffffffff169050816000806101000a81548173ffffffffffffffffffffffffffffffffffffffff021916908373ffffffffffffffffffffffffffffffffffffffff1602179055508173ffffffffffffffffffffffffffffffffffffffff168173ffffffffffffffffffffffffffffffffffffffff167f8be0079c531659141344cd1fd0a4f28419497f9722a3daafe3b4186f6b6457e060405160405180910390a35050565b60008135905061066a816109df565b92915050565b60008151905061067f816109df565b92915050565b600081359050610694816109f6565b92915050565b6000602082840312156106b0576106af610939565b5b60006106be8482850161065b565b91505092915050565b6000602082840312156106dd576106dc610939565b5b60006106eb84828501610670565b91505092915050565b60006020828403121561070a57610709610939565b5b600061071884828501610685565b91505092915050565b61072a816108ce565b82525050565b600061073d602683610867565b91506107488261093e565b604082019050919050565b6000610760601e83610867565b915061076b8261098d565b602082019050919050565b6000610783602083610867565b915061078e826109b6565b602082019050919050565b6107a281610900565b82525050565b60006020820190506107bd6000830184610721565b92915050565b600060208201905081810360008301526107dc81610730565b9050919050565b600060208201905081810360008301526107fc81610753565b9050919050565b6000602082019050818103600083015261081c81610776565b9050919050565b60006020820190506108386000830184610799565b92915050565b60006040820190506108536000830185610799565b6108606020830184610799565b9392505050565b600082825260208201905092915050565b600061088382610900565b915061088e83610900565b9250827fffffffffffffffffffffffffffffffffffffffffffffffffffffffffffffffff038211156108c3576108c261090a565b5b828201905092915050565b60006108d9826108e0565b9050919050565b600073ffffffffffffffffffffffffffffffffffffffff82169050919050565b6000819050919050565b7f4e487b7100000000000000000000000000000000000000000000000000000000600052601160045260246000fd5b600080fd5b7f4f776e61626c653a206e6577206f776e657220697320746865207a65726f206160008201527f6464726573730000000000000000000000000000000000000000000000000000602082015250565b7f416d6f756e74206d7573742067726561746572207468656e207a65726f2e0000600082015250565b7f4f776e61626c653a2063616c6c6572206973206e6f7420746865206f776e6572600082015250565b6109e8816108ce565b81146109f357600080fd5b50565b6109ff81610900565b8114610a0a57600080fd5b5056fea2646970667358221220dad651be8dc3bbd852332b00b212bb9acbfe1f511ce66ca70e2e1eedf1e5cdfc64736f6c63430008070033",
  "linkReferences": {},
  "deployedLinkReferences": {}
}