{
  "_format": "hh-sol-artifact-1",
  "contractName": "GrantToken",
  "sourceName": "contracts/GrantToken.sol",
  "abi": [
    {
      "inputs": [
        {
          "internalType": "string",
          "name": "tokenName",
          "type": "string"
        },
        {
          "internalType": "string",
          "name": "symbol",
          "type": "string"
        }
      ],
      "stateMutability": "nonpayable",
      "type": "constructor"
    },
    {
      "anonymous": false,
      "inputs": [
        {
          "indexed": true,
          "internalType": "address",
          "name": "owner",
          "type": "address"
        },
        {
          "indexed": true,
          "internalType": "address",
          "name": "approved",
          "type": "address"
        },
        {
          "indexed": true,
          "internalType": "uint256",
          "name": "tokenId",
          "type": "uint256"
        }
      ],
      "name": "Approval",
      "type": "event"
    },
    {
      "anonymous": false,
      "inputs": [
        {
          "indexed": true,
          "internalType": "address",
          "name": "owner",
          "type": "address"
        },
        {
          "indexed": true,
          "internalType": "address",
          "name": "operator",
          "type": "address"
        },
        {
          "indexed": false,
          "internalType": "bool",
          "name": "approved",
          "type": "bool"
        }
      ],
      "name": "ApprovalForAll",
      "type": "event"
    },
    {
      "anonymous": false,
      "inputs": [
        {
          "indexed": false,
          "internalType": "uint256",
          "name": "grantId",
          "type": "uint256"
        }
      ],
      "name": "GrantCreated",
      "type": "event"
    },
    {
      "anonymous": false,
      "inputs": [
        {
          "indexed": true,
          "internalType": "address",
          "name": "previousOwner",
          "type": "address"
        },
        {
          "indexed": true,
          "internalType": "address",
          "name": "newOwner",
          "type": "address"
        }
      ],
      "name": "OwnershipTransferred",
      "type": "event"
    },
    {
      "anonymous": false,
      "inputs": [
        {
          "indexed": true,
          "internalType": "address",
          "name": "from",
          "type": "address"
        },
        {
          "indexed": true,
          "internalType": "address",
          "name": "to",
          "type": "address"
        },
        {
          "indexed": true,
          "internalType": "uint256",
          "name": "tokenId",
          "type": "uint256"
        }
      ],
      "name": "Transfer",
      "type": "event"
    },
    {
      "inputs": [
        {
          "internalType": "address",
          "name": "to",
          "type": "address"
        },
        {
          "internalType": "uint256",
          "name": "tokenId",
          "type": "uint256"
        }
      ],
      "name": "approve",
      "outputs": [],
      "stateMutability": "nonpayable",
      "type": "function"
    },
    {
      "inputs": [
        {
          "internalType": "address",
          "name": "owner",
          "type": "address"
        }
      ],
      "name": "balanceOf",
      "outputs": [
        {
          "internalType": "uint256",
          "name": "",
          "type": "uint256"
        }
      ],
      "stateMutability": "view",
      "type": "function"
    },
    {
      "inputs": [
        {
          "internalType": "uint256",
          "name": "tokenId",
          "type": "uint256"
        }
      ],
      "name": "getApproved",
      "outputs": [
        {
          "internalType": "address",
          "name": "",
          "type": "address"
        }
      ],
      "stateMutability": "view",
      "type": "function"
    },
    {
      "inputs": [
        {
          "internalType": "address",
          "name": "owner",
          "type": "address"
        },
        {
          "internalType": "address",
          "name": "operator",
          "type": "address"
        }
      ],
      "name": "isApprovedForAll",
      "outputs": [
        {
          "internalType": "bool",
          "name": "",
          "type": "bool"
        }
      ],
      "stateMutability": "view",
      "type": "function"
    },
    {
      "inputs": [
        {
          "internalType": "address",
          "name": "_owner",
          "type": "address"
        },
        {
          "internalType": "string",
          "name": "_metadataURI",
          "type": "string"
        }
      ],
      "name": "mintToken",
      "outputs": [
        {
          "internalType": "uint256",
          "name": "",
          "type": "uint256"
        }
      ],
      "stateMutability": "nonpayable",
      "type": "function"
    },
    {
      "inputs": [],
      "name": "name",
      "outputs": [
        {
          "internalType": "string",
          "name": "",
          "type": "string"
        }
      ],
      "stateMutability": "view",
      "type": "function"
    },
    {
      "inputs": [],
      "name": "owner",
      "outputs": [
        {
          "internalType": "address",
          "name": "",
          "type": "address"
        }
      ],
      "stateMutability": "view",
      "type": "function"
    },
    {
      "inputs": [
        {
          "internalType": "uint256",
          "name": "tokenId",
          "type": "uint256"
        }
      ],
      "name": "ownerOf",
      "outputs": [
        {
          "internalType": "address",
          "name": "",
          "type": "address"
        }
      ],
      "stateMutability": "view",
      "type": "function"
    },
    {
      "inputs": [],
      "name": "renounceOwnership",
      "outputs": [],
      "stateMutability": "nonpayable",
      "type": "function"
    },
    {
      "inputs": [
        {
          "internalType": "address",
          "name": "from",
          "type": "address"
        },
        {
          "internalType": "address",
          "name": "to",
          "type": "address"
        },
        {
          "internalType": "uint256",
          "name": "tokenId",
          "type": "uint256"
        }
      ],
      "name": "safeTransferFrom",
      "outputs": [],
      "stateMutability": "nonpayable",
      "type": "function"
    },
    {
      "inputs": [
        {
          "internalType": "address",
          "name": "from",
          "type": "address"
        },
        {
          "internalType": "address",
          "name": "to",
          "type": "address"
        },
        {
          "internalType": "uint256",
          "name": "tokenId",
          "type": "uint256"
        },
        {
          "internalType": "bytes",
          "name": "_data",
          "type": "bytes"
        }
      ],
      "name": "safeTransferFrom",
      "outputs": [],
      "stateMutability": "nonpayable",
      "type": "function"
    },
    {
      "inputs": [
        {
          "internalType": "address",
          "name": "operator",
          "type": "address"
        },
        {
          "internalType": "bool",
          "name": "approved",
          "type": "bool"
        }
      ],
      "name": "setApprovalForAll",
      "outputs": [],
      "stateMutability": "nonpayable",
      "type": "function"
    },
    {
      "inputs": [
        {
          "internalType": "bytes4",
          "name": "interfaceId",
          "type": "bytes4"
        }
      ],
      "name": "supportsInterface",
      "outputs": [
        {
          "internalType": "bool",
          "name": "",
          "type": "bool"
        }
      ],
      "stateMutability": "view",
      "type": "function"
    },
    {
      "inputs": [],
      "name": "symbol",
      "outputs": [
        {
          "internalType": "string",
          "name": "",
          "type": "string"
        }
      ],
      "stateMutability": "view",
      "type": "function"
    },
    {
      "inputs": [
        {
          "internalType": "uint256",
          "name": "index",
          "type": "uint256"
        }
      ],
      "name": "tokenByIndex",
      "outputs": [
        {
          "internalType": "uint256",
          "name": "",
          "type": "uint256"
        }
      ],
      "stateMutability": "view",
      "type": "function"
    },
    {
      "inputs": [
        {
          "internalType": "address",
          "name": "owner",
          "type": "address"
        },
        {
          "internalType": "uint256",
          "name": "index",
          "type": "uint256"
        }
      ],
      "name": "tokenOfOwnerByIndex",
      "outputs": [
        {
          "internalType": "uint256",
          "name": "",
          "type": "uint256"
        }
      ],
      "stateMutability": "view",
      "type": "function"
    },
    {
      "inputs": [
        {
          "internalType": "uint256",
          "name": "_grantId",
          "type": "uint256"
        }
      ],
      "name": "tokenURI",
      "outputs": [
        {
          "internalType": "string",
          "name": "",
          "type": "string"
        }
      ],
      "stateMutability": "view",
      "type": "function"
    },
    {
      "inputs": [],
      "name": "totalSupply",
      "outputs": [
        {
          "internalType": "uint256",
          "name": "",
          "type": "uint256"
        }
      ],
      "stateMutability": "view",
      "type": "function"
    },
    {
      "inputs": [
        {
          "internalType": "address",
          "name": "from",
          "type": "address"
        },
        {
          "internalType": "address",
          "name": "to",
          "type": "address"
        },
        {
          "internalType": "uint256",
          "name": "tokenId",
          "type": "uint256"
        }
      ],
      "name": "transferFrom",
      "outputs": [],
      "stateMutability": "nonpayable",
      "type": "function"
    },
    {
      "inputs": [
        {
          "internalType": "address",
          "name": "newOwner",
          "type": "address"
        }
      ],
      "name": "transferOwnership",
      "outputs": [],
      "stateMutability": "nonpayable",
      "type": "function"
    }
  ],
  "bytecode": "0x60806040523480156200001157600080fd5b506040516200374038038062003740833981810160405281019062000037919062000291565b818181600090805190602001906200005192919062000163565b5080600190805190602001906200006a92919062000163565b5050506200008d620000816200009560201b60201c565b6200009d60201b60201c565b50506200049a565b600033905090565b6000600a60009054906101000a900473ffffffffffffffffffffffffffffffffffffffff16905081600a60006101000a81548173ffffffffffffffffffffffffffffffffffffffff021916908373ffffffffffffffffffffffffffffffffffffffff1602179055508173ffffffffffffffffffffffffffffffffffffffff168173ffffffffffffffffffffffffffffffffffffffff167f8be0079c531659141344cd1fd0a4f28419497f9722a3daafe3b4186f6b6457e060405160405180910390a35050565b8280546200017190620003ab565b90600052602060002090601f016020900481019282620001955760008555620001e1565b82601f10620001b057805160ff1916838001178555620001e1565b82800160010185558215620001e1579182015b82811115620001e0578251825591602001919060010190620001c3565b5b509050620001f09190620001f4565b5090565b5b808211156200020f576000816000905550600101620001f5565b5090565b60006200022a62000224846200033f565b62000316565b9050828152602081018484840111156200024957620002486200047a565b5b6200025684828562000375565b509392505050565b600082601f83011262000276576200027562000475565b5b81516200028884826020860162000213565b91505092915050565b60008060408385031215620002ab57620002aa62000484565b5b600083015167ffffffffffffffff811115620002cc57620002cb6200047f565b5b620002da858286016200025e565b925050602083015167ffffffffffffffff811115620002fe57620002fd6200047f565b5b6200030c858286016200025e565b9150509250929050565b60006200032262000335565b9050620003308282620003e1565b919050565b6000604051905090565b600067ffffffffffffffff8211156200035d576200035c62000446565b5b620003688262000489565b9050602081019050919050565b60005b838110156200039557808201518184015260208101905062000378565b83811115620003a5576000848401525b50505050565b60006002820490506001821680620003c457607f821691505b60208210811415620003db57620003da62000417565b5b50919050565b620003ec8262000489565b810181811067ffffffffffffffff821117156200040e576200040d62000446565b5b80604052505050565b7f4e487b7100000000000000000000000000000000000000000000000000000000600052602260045260246000fd5b7f4e487b7100000000000000000000000000000000000000000000000000000000600052604160045260246000fd5b600080fd5b600080fd5b600080fd5b600080fd5b6000601f19601f8301169050919050565b61329680620004aa6000396000f3fe608060405234801561001057600080fd5b506004361061012c5760003560e01c80636352211e116100ad578063a22cb46511610071578063a22cb46514610357578063b88d4fde14610373578063c87b56dd1461038f578063e985e9c5146103bf578063f2fde38b146103ef5761012c565b80636352211e146102b157806370a08231146102e1578063715018a6146103115780638da5cb5b1461031b57806395d89b41146103395761012c565b806323b872dd116100f457806323b872dd146101e95780632f745c59146102055780633d02d0c91461023557806342842e0e146102655780634f6ccce7146102815761012c565b806301ffc9a71461013157806306fdde0314610161578063081812fc1461017f578063095ea7b3146101af57806318160ddd146101cb575b600080fd5b61014b60048036038101906101469190612301565b61040b565b6040516101589190612704565b60405180910390f35b610169610485565b604051610176919061271f565b60405180910390f35b6101996004803603810190610194919061235b565b610517565b6040516101a6919061269d565b60405180910390f35b6101c960048036038101906101c491906122c1565b61059c565b005b6101d36106b4565b6040516101e09190612981565b60405180910390f35b61020360048036038101906101fe919061214f565b6106c1565b005b61021f600480360381019061021a91906122c1565b610721565b60405161022c9190612981565b60405180910390f35b61024f600480360381019061024a9190612265565b6107c6565b60405161025c9190612981565b60405180910390f35b61027f600480360381019061027a919061214f565b610852565b005b61029b6004803603810190610296919061235b565b610872565b6040516102a89190612981565b60405180910390f35b6102cb60048036038101906102c6919061235b565b6108e3565b6040516102d8919061269d565b60405180910390f35b6102fb60048036038101906102f691906120e2565b610995565b6040516103089190612981565b60405180910390f35b610319610a4d565b005b610323610ad5565b604051610330919061269d565b60405180910390f35b610341610aff565b60405161034e919061271f565b60405180910390f35b610371600480360381019061036c9190612225565b610b91565b005b61038d600480360381019061038891906121a2565b610d12565b005b6103a960048036038101906103a4919061235b565b610d74565b6040516103b6919061271f565b60405180910390f35b6103d960048036038101906103d4919061210f565b610e61565b6040516103e69190612704565b60405180910390f35b610409600480360381019061040491906120e2565b610ef5565b005b60007f780e9d63000000000000000000000000000000000000000000000000000000007bffffffffffffffffffffffffffffffffffffffffffffffffffffffff1916827bffffffffffffffffffffffffffffffffffffffffffffffffffffffff1916148061047e575061047d82610fed565b5b9050919050565b60606000805461049490612b9b565b80601f01602080910402602001604051908101604052809291908181526020018280546104c090612b9b565b801561050d5780601f106104e25761010080835404028352916020019161050d565b820191906000526020600020905b8154815290600101906020018083116104f057829003601f168201915b5050505050905090565b6000610522826110cf565b610561576040517f08c379a0000000000000000000000000000000000000000000000000000000008152600401610558906128c1565b60405180910390fd5b6004600083815260200190815260200160002060009054906101000a900473ffffffffffffffffffffffffffffffffffffffff169050919050565b60006105a7826108e3565b90508073ffffffffffffffffffffffffffffffffffffffff168373ffffffffffffffffffffffffffffffffffffffff161415610618576040517f08c379a000000000000000000000000000000000000000000000000000000000815260040161060f90612921565b60405180910390fd5b8073ffffffffffffffffffffffffffffffffffffffff1661063761113b565b73ffffffffffffffffffffffffffffffffffffffff16148061066657506106658161066061113b565b610e61565b5b6106a5576040517f08c379a000000000000000000000000000000000000000000000000000000000815260040161069c90612841565b60405180910390fd5b6106af8383611143565b505050565b6000600880549050905090565b6106d26106cc61113b565b826111fc565b610711576040517f08c379a000000000000000000000000000000000000000000000000000000000815260040161070890612941565b60405180910390fd5b61071c8383836112da565b505050565b600061072c83610995565b821061076d576040517f08c379a000000000000000000000000000000000000000000000000000000000815260040161076490612761565b60405180910390fd5b600660008473ffffffffffffffffffffffffffffffffffffffff1673ffffffffffffffffffffffffffffffffffffffff168152602001908152602001600020600083815260200190815260200160002054905092915050565b6000806107d3600b611536565b90506107df8482611544565b82600c60008381526020019081526020016000209080519060200190610806929190611ef6565b50610811600b611562565b7f22a2abd07e87b230325c9a9ca7e31611cb7458a525a490f050e656ffb2410c26816040516108409190612981565b60405180910390a18091505092915050565b61086d83838360405180602001604052806000815250610d12565b505050565b600061087c6106b4565b82106108bd576040517f08c379a00000000000000000000000000000000000000000000000000000000081526004016108b490612961565b60405180910390fd5b600882815481106108d1576108d0612c8b565b5b90600052602060002001549050919050565b6000806002600084815260200190815260200160002060009054906101000a900473ffffffffffffffffffffffffffffffffffffffff169050600073ffffffffffffffffffffffffffffffffffffffff168173ffffffffffffffffffffffffffffffffffffffff16141561098c576040517f08c379a000000000000000000000000000000000000000000000000000000000815260040161098390612881565b60405180910390fd5b80915050919050565b60008073ffffffffffffffffffffffffffffffffffffffff168273ffffffffffffffffffffffffffffffffffffffff161415610a06576040517f08c379a00000000000000000000000000000000000000000000000000000000081526004016109fd90612861565b60405180910390fd5b600360008373ffffffffffffffffffffffffffffffffffffffff1673ffffffffffffffffffffffffffffffffffffffff168152602001908152602001600020549050919050565b610a5561113b565b73ffffffffffffffffffffffffffffffffffffffff16610a73610ad5565b73ffffffffffffffffffffffffffffffffffffffff1614610ac9576040517f08c379a0000000000000000000000000000000000000000000000000000000008152600401610ac0906128e1565b60405180910390fd5b610ad36000611578565b565b6000600a60009054906101000a900473ffffffffffffffffffffffffffffffffffffffff16905090565b606060018054610b0e90612b9b565b80601f0160208091040260200160405190810160405280929190818152602001828054610b3a90612b9b565b8015610b875780601f10610b5c57610100808354040283529160200191610b87565b820191906000526020600020905b815481529060010190602001808311610b6a57829003601f168201915b5050505050905090565b610b9961113b565b73ffffffffffffffffffffffffffffffffffffffff168273ffffffffffffffffffffffffffffffffffffffff161415610c07576040517f08c379a0000000000000000000000000000000000000000000000000000000008152600401610bfe90612801565b60405180910390fd5b8060056000610c1461113b565b73ffffffffffffffffffffffffffffffffffffffff1673ffffffffffffffffffffffffffffffffffffffff16815260200190815260200160002060008473ffffffffffffffffffffffffffffffffffffffff1673ffffffffffffffffffffffffffffffffffffffff16815260200190815260200160002060006101000a81548160ff0219169083151502179055508173ffffffffffffffffffffffffffffffffffffffff16610cc161113b565b73ffffffffffffffffffffffffffffffffffffffff167f17307eab39ab6107e8899845ad3d59bd9653f200f220920489ca2b5937696c3183604051610d069190612704565b60405180910390a35050565b610d23610d1d61113b565b836111fc565b610d62576040517f08c379a0000000000000000000000000000000000000000000000000000000008152600401610d5990612941565b60405180910390fd5b610d6e8484848461163e565b50505050565b6060610d7f826110cf565b610dbe576040517f08c379a0000000000000000000000000000000000000000000000000000000008152600401610db590612741565b60405180910390fd5b600c60008381526020019081526020016000208054610ddc90612b9b565b80601f0160208091040260200160405190810160405280929190818152602001828054610e0890612b9b565b8015610e555780601f10610e2a57610100808354040283529160200191610e55565b820191906000526020600020905b815481529060010190602001808311610e3857829003601f168201915b50505050509050919050565b6000600560008473ffffffffffffffffffffffffffffffffffffffff1673ffffffffffffffffffffffffffffffffffffffff16815260200190815260200160002060008373ffffffffffffffffffffffffffffffffffffffff1673ffffffffffffffffffffffffffffffffffffffff16815260200190815260200160002060009054906101000a900460ff16905092915050565b610efd61113b565b73ffffffffffffffffffffffffffffffffffffffff16610f1b610ad5565b73ffffffffffffffffffffffffffffffffffffffff1614610f71576040517f08c379a0000000000000000000000000000000000000000000000000000000008152600401610f68906128e1565b60405180910390fd5b600073ffffffffffffffffffffffffffffffffffffffff168173ffffffffffffffffffffffffffffffffffffffff161415610fe1576040517f08c379a0000000000000000000000000000000000000000000000000000000008152600401610fd8906127a1565b60405180910390fd5b610fea81611578565b50565b60007f80ac58cd000000000000000000000000000000000000000000000000000000007bffffffffffffffffffffffffffffffffffffffffffffffffffffffff1916827bffffffffffffffffffffffffffffffffffffffffffffffffffffffff191614806110b857507f5b5e139f000000000000000000000000000000000000000000000000000000007bffffffffffffffffffffffffffffffffffffffffffffffffffffffff1916827bffffffffffffffffffffffffffffffffffffffffffffffffffffffff1916145b806110c857506110c78261169a565b5b9050919050565b60008073ffffffffffffffffffffffffffffffffffffffff166002600084815260200190815260200160002060009054906101000a900473ffffffffffffffffffffffffffffffffffffffff1673ffffffffffffffffffffffffffffffffffffffff1614159050919050565b600033905090565b816004600083815260200190815260200160002060006101000a81548173ffffffffffffffffffffffffffffffffffffffff021916908373ffffffffffffffffffffffffffffffffffffffff160217905550808273ffffffffffffffffffffffffffffffffffffffff166111b6836108e3565b73ffffffffffffffffffffffffffffffffffffffff167f8c5be1e5ebec7d5bd14f71427d1e84f3dd0314c0f7b2291e5b200ac8c7c3b92560405160405180910390a45050565b6000611207826110cf565b611246576040517f08c379a000000000000000000000000000000000000000000000000000000000815260040161123d90612821565b60405180910390fd5b6000611251836108e3565b90508073ffffffffffffffffffffffffffffffffffffffff168473ffffffffffffffffffffffffffffffffffffffff1614806112c057508373ffffffffffffffffffffffffffffffffffffffff166112a884610517565b73ffffffffffffffffffffffffffffffffffffffff16145b806112d157506112d08185610e61565b5b91505092915050565b8273ffffffffffffffffffffffffffffffffffffffff166112fa826108e3565b73ffffffffffffffffffffffffffffffffffffffff1614611350576040517f08c379a000000000000000000000000000000000000000000000000000000000815260040161134790612901565b60405180910390fd5b600073ffffffffffffffffffffffffffffffffffffffff168273ffffffffffffffffffffffffffffffffffffffff1614156113c0576040517f08c379a00000000000000000000000000000000000000000000000000000000081526004016113b7906127e1565b60405180910390fd5b6113cb838383611704565b6113d6600082611143565b6001600360008573ffffffffffffffffffffffffffffffffffffffff1673ffffffffffffffffffffffffffffffffffffffff16815260200190815260200160002060008282546114269190612ab1565b925050819055506001600360008473ffffffffffffffffffffffffffffffffffffffff1673ffffffffffffffffffffffffffffffffffffffff168152602001908152602001600020600082825461147d9190612a5b565b92505081905550816002600083815260200190815260200160002060006101000a81548173ffffffffffffffffffffffffffffffffffffffff021916908373ffffffffffffffffffffffffffffffffffffffff160217905550808273ffffffffffffffffffffffffffffffffffffffff168473ffffffffffffffffffffffffffffffffffffffff167fddf252ad1be2c89b69c2b068fc378daa952ba7f163c4a11628f55a4df523b3ef60405160405180910390a4505050565b600081600001549050919050565b61155e828260405180602001604052806000815250611818565b5050565b6001816000016000828254019250508190555050565b6000600a60009054906101000a900473ffffffffffffffffffffffffffffffffffffffff16905081600a60006101000a81548173ffffffffffffffffffffffffffffffffffffffff021916908373ffffffffffffffffffffffffffffffffffffffff1602179055508173ffffffffffffffffffffffffffffffffffffffff168173ffffffffffffffffffffffffffffffffffffffff167f8be0079c531659141344cd1fd0a4f28419497f9722a3daafe3b4186f6b6457e060405160405180910390a35050565b6116498484846112da565b61165584848484611873565b611694576040517f08c379a000000000000000000000000000000000000000000000000000000000815260040161168b90612781565b60405180910390fd5b50505050565b60007f01ffc9a7000000000000000000000000000000000000000000000000000000007bffffffffffffffffffffffffffffffffffffffffffffffffffffffff1916827bffffffffffffffffffffffffffffffffffffffffffffffffffffffff1916149050919050565b61170f838383611a0a565b600073ffffffffffffffffffffffffffffffffffffffff168373ffffffffffffffffffffffffffffffffffffffff1614156117525761174d81611a0f565b611791565b8173ffffffffffffffffffffffffffffffffffffffff168373ffffffffffffffffffffffffffffffffffffffff16146117905761178f8382611a58565b5b5b600073ffffffffffffffffffffffffffffffffffffffff168273ffffffffffffffffffffffffffffffffffffffff1614156117d4576117cf81611bc5565b611813565b8273ffffffffffffffffffffffffffffffffffffffff168273ffffffffffffffffffffffffffffffffffffffff1614611812576118118282611c96565b5b5b505050565b6118228383611d15565b61182f6000848484611873565b61186e576040517f08c379a000000000000000000000000000000000000000000000000000000000815260040161186590612781565b60405180910390fd5b505050565b60006118948473ffffffffffffffffffffffffffffffffffffffff16611ee3565b156119fd578373ffffffffffffffffffffffffffffffffffffffff1663150b7a026118bd61113b565b8786866040518563ffffffff1660e01b81526004016118df94939291906126b8565b602060405180830381600087803b1580156118f957600080fd5b505af192505050801561192a57506040513d601f19601f82011682018060405250810190611927919061232e565b60015b6119ad573d806000811461195a576040519150601f19603f3d011682016040523d82523d6000602084013e61195f565b606091505b506000815114156119a5576040517f08c379a000000000000000000000000000000000000000000000000000000000815260040161199c90612781565b60405180910390fd5b805181602001fd5b63150b7a0260e01b7bffffffffffffffffffffffffffffffffffffffffffffffffffffffff1916817bffffffffffffffffffffffffffffffffffffffffffffffffffffffff191614915050611a02565b600190505b949350505050565b505050565b6008805490506009600083815260200190815260200160002081905550600881908060018154018082558091505060019003906000526020600020016000909190919091505550565b60006001611a6584610995565b611a6f9190612ab1565b9050600060076000848152602001908152602001600020549050818114611b54576000600660008673ffffffffffffffffffffffffffffffffffffffff1673ffffffffffffffffffffffffffffffffffffffff168152602001908152602001600020600084815260200190815260200160002054905080600660008773ffffffffffffffffffffffffffffffffffffffff1673ffffffffffffffffffffffffffffffffffffffff168152602001908152602001600020600084815260200190815260200160002081905550816007600083815260200190815260200160002081905550505b6007600084815260200190815260200160002060009055600660008573ffffffffffffffffffffffffffffffffffffffff1673ffffffffffffffffffffffffffffffffffffffff16815260200190815260200160002060008381526020019081526020016000206000905550505050565b60006001600880549050611bd99190612ab1565b9050600060096000848152602001908152602001600020549050600060088381548110611c0957611c08612c8b565b5b906000526020600020015490508060088381548110611c2b57611c2a612c8b565b5b906000526020600020018190555081600960008381526020019081526020016000208190555060096000858152602001908152602001600020600090556008805480611c7a57611c79612c5c565b5b6001900381819060005260206000200160009055905550505050565b6000611ca183610995565b905081600660008573ffffffffffffffffffffffffffffffffffffffff1673ffffffffffffffffffffffffffffffffffffffff168152602001908152602001600020600083815260200190815260200160002081905550806007600084815260200190815260200160002081905550505050565b600073ffffffffffffffffffffffffffffffffffffffff168273ffffffffffffffffffffffffffffffffffffffff161415611d85576040517f08c379a0000000000000000000000000000000000000000000000000000000008152600401611d7c906128a1565b60405180910390fd5b611d8e816110cf565b15611dce576040517f08c379a0000000000000000000000000000000000000000000000000000000008152600401611dc5906127c1565b60405180910390fd5b611dda60008383611704565b6001600360008473ffffffffffffffffffffffffffffffffffffffff1673ffffffffffffffffffffffffffffffffffffffff1681526020019081526020016000206000828254611e2a9190612a5b565b92505081905550816002600083815260200190815260200160002060006101000a81548173ffffffffffffffffffffffffffffffffffffffff021916908373ffffffffffffffffffffffffffffffffffffffff160217905550808273ffffffffffffffffffffffffffffffffffffffff16600073ffffffffffffffffffffffffffffffffffffffff167fddf252ad1be2c89b69c2b068fc378daa952ba7f163c4a11628f55a4df523b3ef60405160405180910390a45050565b600080823b905060008111915050919050565b828054611f0290612b9b565b90600052602060002090601f016020900481019282611f245760008555611f6b565b82601f10611f3d57805160ff1916838001178555611f6b565b82800160010185558215611f6b579182015b82811115611f6a578251825591602001919060010190611f4f565b5b509050611f789190611f7c565b5090565b5b80821115611f95576000816000905550600101611f7d565b5090565b6000611fac611fa7846129c1565b61299c565b905082815260208101848484011115611fc857611fc7612cee565b5b611fd3848285612b59565b509392505050565b6000611fee611fe9846129f2565b61299c565b90508281526020810184848401111561200a57612009612cee565b5b612015848285612b59565b509392505050565b60008135905061202c81613204565b92915050565b6000813590506120418161321b565b92915050565b60008135905061205681613232565b92915050565b60008151905061206b81613232565b92915050565b600082601f83011261208657612085612ce9565b5b8135612096848260208601611f99565b91505092915050565b600082601f8301126120b4576120b3612ce9565b5b81356120c4848260208601611fdb565b91505092915050565b6000813590506120dc81613249565b92915050565b6000602082840312156120f8576120f7612cf8565b5b60006121068482850161201d565b91505092915050565b6000806040838503121561212657612125612cf8565b5b60006121348582860161201d565b92505060206121458582860161201d565b9150509250929050565b60008060006060848603121561216857612167612cf8565b5b60006121768682870161201d565b93505060206121878682870161201d565b9250506040612198868287016120cd565b9150509250925092565b600080600080608085870312156121bc576121bb612cf8565b5b60006121ca8782880161201d565b94505060206121db8782880161201d565b93505060406121ec878288016120cd565b925050606085013567ffffffffffffffff81111561220d5761220c612cf3565b5b61221987828801612071565b91505092959194509250565b6000806040838503121561223c5761223b612cf8565b5b600061224a8582860161201d565b925050602061225b85828601612032565b9150509250929050565b6000806040838503121561227c5761227b612cf8565b5b600061228a8582860161201d565b925050602083013567ffffffffffffffff8111156122ab576122aa612cf3565b5b6122b78582860161209f565b9150509250929050565b600080604083850312156122d8576122d7612cf8565b5b60006122e68582860161201d565b92505060206122f7858286016120cd565b9150509250929050565b60006020828403121561231757612316612cf8565b5b600061232584828501612047565b91505092915050565b60006020828403121561234457612343612cf8565b5b60006123528482850161205c565b91505092915050565b60006020828403121561237157612370612cf8565b5b600061237f848285016120cd565b91505092915050565b61239181612ae5565b82525050565b6123a081612af7565b82525050565b60006123b182612a23565b6123bb8185612a39565b93506123cb818560208601612b68565b6123d481612cfd565b840191505092915050565b60006123ea82612a2e565b6123f48185612a4a565b9350612404818560208601612b68565b61240d81612cfd565b840191505092915050565b6000612425602b83612a4a565b915061243082612d0e565b604082019050919050565b6000612448602b83612a4a565b915061245382612d5d565b604082019050919050565b600061246b603283612a4a565b915061247682612dac565b604082019050919050565b600061248e602683612a4a565b915061249982612dfb565b604082019050919050565b60006124b1601c83612a4a565b91506124bc82612e4a565b602082019050919050565b60006124d4602483612a4a565b91506124df82612e73565b604082019050919050565b60006124f7601983612a4a565b915061250282612ec2565b602082019050919050565b600061251a602c83612a4a565b915061252582612eeb565b604082019050919050565b600061253d603883612a4a565b915061254882612f3a565b604082019050919050565b6000612560602a83612a4a565b915061256b82612f89565b604082019050919050565b6000612583602983612a4a565b915061258e82612fd8565b604082019050919050565b60006125a6602083612a4a565b91506125b182613027565b602082019050919050565b60006125c9602c83612a4a565b91506125d482613050565b604082019050919050565b60006125ec602083612a4a565b91506125f78261309f565b602082019050919050565b600061260f602983612a4a565b915061261a826130c8565b604082019050919050565b6000612632602183612a4a565b915061263d82613117565b604082019050919050565b6000612655603183612a4a565b915061266082613166565b604082019050919050565b6000612678602c83612a4a565b9150612683826131b5565b604082019050919050565b61269781612b4f565b82525050565b60006020820190506126b26000830184612388565b92915050565b60006080820190506126cd6000830187612388565b6126da6020830186612388565b6126e7604083018561268e565b81810360608301526126f981846123a6565b905095945050505050565b60006020820190506127196000830184612397565b92915050565b6000602082019050818103600083015261273981846123df565b905092915050565b6000602082019050818103600083015261275a81612418565b9050919050565b6000602082019050818103600083015261277a8161243b565b9050919050565b6000602082019050818103600083015261279a8161245e565b9050919050565b600060208201905081810360008301526127ba81612481565b9050919050565b600060208201905081810360008301526127da816124a4565b9050919050565b600060208201905081810360008301526127fa816124c7565b9050919050565b6000602082019050818103600083015261281a816124ea565b9050919050565b6000602082019050818103600083015261283a8161250d565b9050919050565b6000602082019050818103600083015261285a81612530565b9050919050565b6000602082019050818103600083015261287a81612553565b9050919050565b6000602082019050818103600083015261289a81612576565b9050919050565b600060208201905081810360008301526128ba81612599565b9050919050565b600060208201905081810360008301526128da816125bc565b9050919050565b600060208201905081810360008301526128fa816125df565b9050919050565b6000602082019050818103600083015261291a81612602565b9050919050565b6000602082019050818103600083015261293a81612625565b9050919050565b6000602082019050818103600083015261295a81612648565b9050919050565b6000602082019050818103600083015261297a8161266b565b9050919050565b6000602082019050612996600083018461268e565b92915050565b60006129a66129b7565b90506129b28282612bcd565b919050565b6000604051905090565b600067ffffffffffffffff8211156129dc576129db612cba565b5b6129e582612cfd565b9050602081019050919050565b600067ffffffffffffffff821115612a0d57612a0c612cba565b5b612a1682612cfd565b9050602081019050919050565b600081519050919050565b600081519050919050565b600082825260208201905092915050565b600082825260208201905092915050565b6000612a6682612b4f565b9150612a7183612b4f565b9250827fffffffffffffffffffffffffffffffffffffffffffffffffffffffffffffffff03821115612aa657612aa5612bfe565b5b828201905092915050565b6000612abc82612b4f565b9150612ac783612b4f565b925082821015612ada57612ad9612bfe565b5b828203905092915050565b6000612af082612b2f565b9050919050565b60008115159050919050565b60007fffffffff0000000000000000000000000000000000000000000000000000000082169050919050565b600073ffffffffffffffffffffffffffffffffffffffff82169050919050565b6000819050919050565b82818337600083830152505050565b60005b83811015612b86578082015181840152602081019050612b6b565b83811115612b95576000848401525b50505050565b60006002820490506001821680612bb357607f821691505b60208210811415612bc757612bc6612c2d565b5b50919050565b612bd682612cfd565b810181811067ffffffffffffffff82111715612bf557612bf4612cba565b5b80604052505050565b7f4e487b7100000000000000000000000000000000000000000000000000000000600052601160045260246000fd5b7f4e487b7100000000000000000000000000000000000000000000000000000000600052602260045260246000fd5b7f4e487b7100000000000000000000000000000000000000000000000000000000600052603160045260246000fd5b7f4e487b7100000000000000000000000000000000000000000000000000000000600052603260045260246000fd5b7f4e487b7100000000000000000000000000000000000000000000000000000000600052604160045260246000fd5b600080fd5b600080fd5b600080fd5b600080fd5b6000601f19601f8301169050919050565b7f4552433732314d657461646174613a20517565727920666f72206e6f6e65786960008201527f7374656e7420746f6b656e000000000000000000000000000000000000000000602082015250565b7f455243373231456e756d657261626c653a206f776e657220696e646578206f7560008201527f74206f6620626f756e6473000000000000000000000000000000000000000000602082015250565b7f4552433732313a207472616e7366657220746f206e6f6e20455243373231526560008201527f63656976657220696d706c656d656e7465720000000000000000000000000000602082015250565b7f4f776e61626c653a206e6577206f776e657220697320746865207a65726f206160008201527f6464726573730000000000000000000000000000000000000000000000000000602082015250565b7f4552433732313a20746f6b656e20616c7265616479206d696e74656400000000600082015250565b7f4552433732313a207472616e7366657220746f20746865207a65726f2061646460008201527f7265737300000000000000000000000000000000000000000000000000000000602082015250565b7f4552433732313a20617070726f766520746f2063616c6c657200000000000000600082015250565b7f4552433732313a206f70657261746f7220717565727920666f72206e6f6e657860008201527f697374656e7420746f6b656e0000000000000000000000000000000000000000602082015250565b7f4552433732313a20617070726f76652063616c6c6572206973206e6f74206f7760008201527f6e6572206e6f7220617070726f76656420666f7220616c6c0000000000000000602082015250565b7f4552433732313a2062616c616e636520717565727920666f7220746865207a6560008201527f726f206164647265737300000000000000000000000000000000000000000000602082015250565b7f4552433732313a206f776e657220717565727920666f72206e6f6e657869737460008201527f656e7420746f6b656e0000000000000000000000000000000000000000000000602082015250565b7f4552433732313a206d696e7420746f20746865207a65726f2061646472657373600082015250565b7f4552433732313a20617070726f76656420717565727920666f72206e6f6e657860008201527f697374656e7420746f6b656e0000000000000000000000000000000000000000602082015250565b7f4f776e61626c653a2063616c6c6572206973206e6f7420746865206f776e6572600082015250565b7f4552433732313a207472616e73666572206f6620746f6b656e2074686174206960008201527f73206e6f74206f776e0000000000000000000000000000000000000000000000602082015250565b7f4552433732313a20617070726f76616c20746f2063757272656e74206f776e6560008201527f7200000000000000000000000000000000000000000000000000000000000000602082015250565b7f4552433732313a207472616e736665722063616c6c6572206973206e6f74206f60008201527f776e6572206e6f7220617070726f766564000000000000000000000000000000602082015250565b7f455243373231456e756d657261626c653a20676c6f62616c20696e646578206f60008201527f7574206f6620626f756e64730000000000000000000000000000000000000000602082015250565b61320d81612ae5565b811461321857600080fd5b50565b61322481612af7565b811461322f57600080fd5b50565b61323b81612b03565b811461324657600080fd5b50565b61325281612b4f565b811461325d57600080fd5b5056fea2646970667358221220313e7a07735a5e24b42b4371bba54d736d9b0c6583d087fdcaac0d5a3db59dc364736f6c63430008070033",
  "linkReferences": {},
  "deployedLinkReferences": {}
}